:10097400312000762032200054696D6520000D314D
:1009840020002054696D6520004461746120696E03
:0809940020554152540A0D00E8
:080A2F00C2B5D2B67F057E00BE
:100A3700EF1FAA0670011E4A600F7DFADDFE7DF7E3
:090A4700EDD3940040EA1D80F794
:010A50002283
:0A0AF8008F80C2B4120A2FC2B6228A
:0A0B02008F80D2B4120A2FC2B6226F
:100A73007F01120AF87F06120AF87F02120AF87F32
:0E0A830038120AF87F0C120AF87F80020AF877
:10099C008B298A2A892BAB29AA2AA92B12036060DE
:1009AC0013052BE52B7002052A14F9120360FF12B4
:0509BC000B0280E222A5
:0405EF008F828E83E6
:1005F300E4F52FF530E582458370057F30020B0269
:10060300C3E583648094805010C3E49582F582E44B
:100613009583F5837F2D120B02E582458360317C40
:10062300007D0AAF82AE8312038B8C318D32AE2FE5
:10063300AF307C007D0A120379E5322FF530E531C6
:100643003EF52FAF82AE8312038B8E838F8280C9D8
:10065300E530452F6028AE2FAF307C007D0A1203B2
:100663008B8C318D32E5322430FF120B02AE2FAF6B
:0E067300307C007D0A12038B8E2F8F3080D2D8
:010681002256
:08080F008F2C8E2B8D2A8C2901
:100817001202DF8E2D8F2E1205EF7F2E120B02ACE8
:100827002DAD2EEC1202A6A804A905AA06AB07AFA8
:100837002CAE2BAD2AAC29120006E4FBFA79C87856
:0E084700421200FB1202DF8E2D8F2E0205EFF3
:0F0ADD00758920759850758DFD758BFDD28E2211
:080B15008F993099FDC299226D
:080B1D003098FDC298AF992247
:1009C1008B298A2A892BAB29AA2AA92B12036060B9
:1009D10013052BE52B7002052A14F9120360FF128F
:0509E1000B1580E2226D
:04070E00AB07AA0685
:10071200900000EB4A70057F30020B15C3EA64803B
:100722009480500CC3E49BFBE49AFA7F2D120B15C4
:10073200EB4A60317C007D0AAF03AE0212038B8C60
:100742002F8D307C007D0AAF82AE83120379E530B3
:100752002FF582E52F3EF583AF03AE0212038BAA7B
:1007620006AB0780CBE582458360287C007D0AAF1B
:1007720082AE8312038B8C2F8D30E5302430FF1232
:100782000B157C007D0AAF82AE8312038B8E838FA2
:030792008280D290
:010795002241
:080855008F2C8E2B8D2A8C29BB
:10085D001202DF8E2D8F2E12070E7F2E120B15AC6E
:10086D002DAD2EEC1202A6A804A905AA06AB07AF62
:10087D002CAE2BAD2AAC29120006E4FBFA79C87810
:0E088D00421200FB1202DF8E2D8F2E02070E8C
:02068200AD07C2
:10068400E4F521F522C293C290D292D290C290D2C4
:1006940092D290C290D292D290ED7006C290C29241
:1006A4008007BD010CC290D292D290C290C292D265
:1006B40090C290D290C290D2907C0BC2903091158F
:1006C40074017E00A804088005C333CE33CED8F964
:1006D4004222EE4221D2901CC3EC6480948050DB11
:1006E400D293BD0108AC21AD22E40202A6AC21AD37
:1006F40022E41202A6E4FBFA79A078401200FBE49B
:09070400FBFA7980784512020429
:01070D0022C9
:070B2500D2A1D2A0C2A02260
:090B0C00C2A1C2A0D2A1D2A02214
:02094500AD07FC
:100947007C07C2A174017E00A804088005C333CECA
:1009570033CED8F9FFEDFBEF5B6003D38001C39281
:0C096700A0D2A11CC3EC6480948050D688
:010973002261
:100A5100E4FF7E07D2A130A00D7401A80608800230
:100A6100C333D8FC4207C2A11EC3EE6480948050F8
:010A7100E3A1
:010A72002261
:0B0AC600120945120AD1AF01120945C8
:0C0AD100C2A1D2A0D2A120A0FDC2A1228F
:070B2C00C2A1D2A0D2A12258
:060A0B007B027D037FD099
:100A1100AE07AA03A905120B25120AC6AF021209D5
:0E0A210045120AD1120B0C7F0A7E00020A3722
:0409E600AA07A905AE
:1009EA00E4FF120B25AF02120AC6120B25EA4401D4
:1009FA00FF120945120AD1120A51120B2C120B0CC2
:010A0A0022C9
:100912007B167D057FD0120A117B017D047FD012E8
:100922000A11120A0B120A0B7B057D027FD0120AF2
:10093200117B067D017FD0120A117B15E4FD7FD069
:03094200020A1195
:10050D00E4F5337D027FD01209E68F227D017FD085
:10051D001209E68F21E4FD7FD01209E6E522D3947E
:10052D000C400874F42522F5228002E522C4540FF4
:10053D002430FEAD33053374232DF8A606E5225481
:10054D000F2430FEAD33053374232DF8A606AE33DC
:10055D00053374232EF8763AE521C4540F2430FE6A
:10056D00AD33053374232DF8A606E521540F243041
:10057D00FEAD33053374232DF8A606AE3305337463
:10058D00232EF8763AEFC4540F2430FEAD330533E5
:10059D0074232DF8A606EF540F2430FFAE33053328
:1005AD0074232EF8A607AF33053374232FF8762066
:1005BD00E522D3940CAF33400A053374232FF8761C
:1005CD00618008053374232FF87670AF33053374CB
:1005DD00232FF8766D74232533F8E4F6FB7A007932
:0105ED0023EA
:0105EE0022EA
:10089B008F248E238D228C217F80120AF87BFF7A86
:1008AB0009797412099CAF28AE27AD26AC25120826
:1008BB000F7BFF7A09797712099CAF24AE23AD2207
:0D08CB00AC211202DF1205EF7FC0020AF817
:100A91008B218A2289237FC0120AF87BFF7A097988
:0D0AA1007C12099CAB21AA22A92302099C0A
:1008D8008F248E238D228C217BFF7A09798212093D
:1008E800C1AF28AE27AD26AC251208557BFF7A0983
:1008F80079771209C1AF24AE23AD22AC211202DFF1
:0A09080012070E7F647E00020A371A
:100AAE008B218A2289237BFF7A0979861209C1ABB1
:080ABE0021AA22A9230209C1AB
:10079600E4F508120A73120ADD1209127BFF7A09C0
:1007A600798D1209C112050D78097C007D001204AD
:1007B6009B7F011206828F1C8E1B8D1A8C19E4FFFB
:1007C6001206828F208E1F8D1E8C1D8F288E278DE0
:1007D600268C25AF1CAE1BAD1AAC1912089B7B00EC
:1007E6007A007909120A917B007A007909120AAE19
:1007F600852028851F27851E26851D25AF1CAE1B37
:09080600AD1AAC191208D8809C4F
:1000030002034BE86480F8E933E83360110460F0DD
:10001300ED33EC337009E8FCE9FDEAFEEBFF220463
:1000230060DED3EB9FEA9EE99DE8C2E78CF0C2F75E
:1000330095F0400CE8CCF8E9CDF9EACEFAEBCFFB2A
:1000430012031685D0F05804700320D5B3E804706A
:10005300075002B2D502035592D5EC0460F7E4CC05
:10006300C0E0C398F8603B94186008400DD0E0FBF3
:1000730002032DE4FBFAC9FC8028E830E406E4C956
:10008300FBE4CAFCE830E305E4C9CACBFCE8540747
:100093006010F8C3E913F9EA13FAEB13FBEC13FC52
:1000A300D8F130F52FC3E49CFCEF9BFFEE9AFEEDF5
:1000B30099FDD0E0FBEF4E4D4C701222DB0302039F
:1000C30052EC2CFCEF33FFEE33FEED33FDED30E766
:1000D300EB02032DEF2BFFEE3AFEED39FDD0E0FBF3
:1000E30050130BBB0003020355ED13FDEE13FEEF9C
:0800F30013FFEC13FC02032DC6
:1000FB00EC4D6011E8497017ED33EC3304600DE4FF
:10010B00FCFFFEFD22E933E8330470F802034B12C7
:10011B00031658046009E4CC2481500628500902C8
:10012B000355284003020352C0E0EB4A7044B980E8
:10013B0006D0E0FB020341EF4E701CBD8008EBFFC5
:10014B00EAFEE9FD80EBE98DF0A4FEE5F00201E4A7
:10015B00E9CDF9EAFEEBFFEF89F0A4FCE5F0CE89DF
:10016B00F0A42EFFE435F0CD89F0A42DFEE435F09C
:10017B008067EF4E7005BD80D780C3EF8BF0A4ACCA
:10018B00F0EE8BF0A42CFCE435F0F8EF8AF0A42C05
:10019B00E5F038FCE433CB8DF0A42CFCE5F03BF818
:1001AB00EE8AF0A42CFCE5F038F8E433CF89F0A408
:1001BB002CFCE5F038CF3400CE89F0A42FFFE5F00E
:1001CB003EFEE433C98DF0A42EFEE5F039CD8AF066
:1001DB00A42FFFE5F03EFEE43DFD33D0E0FB5007DE
:1001EB000BBB000F020355EC2CFCEF33FFEE33FE81
:0601FB00ED33FD02032DAF
:10020100020355EC5D046005E85904700302034BD9
:10021100120316580460F6EC4860F2EC7004FDFE1F
:10022100FF22C860DB2481C85009C39860025006D0
:100231000203529850CAF582E9294B4A7005AB82F4
:1002410002034175F0007C1A7880C3EF9BEE9AEDB2
:1002510099400DC3EF9BFFEE9AFEED99FDE842F048
:10026100DC23ACF0D0E0FFD0E0FED0E0FDAB82209B
:10027100E7101BEB60BAEC2CFCEF33FFEE33FEED25
:1002810033FD02032DE803F830E705C0F075F000F7
:10029100EF2FFFEE33FEED33FD40B830E7C280AA09
:1002A10075F020800E75F010800575F0087D007ED8
:1002B100007F003392D530D5031203C1EC334010D7
:1002C100EF33FFEE33FEED33FDEC33FCD5F0ED22E1
:0E02D100E5F0247EA2D513CC92E7CDCEFF221D
:1002DF00EDD2E7CD33EC3392D524814006E4FFFE17
:1002EF00FDFC22FCE4CFCECDCC24E0501174FF8076
:1002FF00EDC3CC13CCCD13CDCE13CECF13CF047013
:07030F00F030D5DE0203C14E
:10031600E9D2E7C933E833F892D5EDD2E7CD33EC2D
:0703260033FC5002B2D522A6
:10032D00EC30E7100FBF000C0EBE00080DBD000431
:10033D000BEB6014A2D5EB13FCED92E7FD2274FFDD
:10034D00FCFDFEFF22E480F8A2D574FF13FC7D8036
:03035D00E480EF4A
:03000000020AEC05
:0C0AEC00787FE4F6D8FD75813302079690
:10036000BB010689828A83E0225002E722BBFE029B
:09037000E32289828A83E49322CE
:10037900EF8DF0A4A8F0CF8CF0A428CE8DF0A42E98
:02038900FE2252
:10038B00C2D5EC30E709B2D5E4C39DFDE49CFCEE8D
:10039B0030E715B2D5E4C39FFFE49EFE1204B8C349
:1003AB00E49DFDE49CFC80031204B830D507C3E444
:0603BB009FFFE49EFE22FC
:0E03C100C3E49FFFE49EFEE49DFDE49CFC224D
:1003CF00E709F60870FA8046E709F20870FA803EEE
:1003DF0088828C83E709F0A370FA807EE309F60820
:1003EF0070FA8076E309F20870FA806E88828C8347
:1003FF00E309F0A370FA806289828A83E0A3F6088A
:10040F0070FA805689828A83E0A3F20870FA804AD4
:10041F0080D280FA80C680D4806580F280318010CF
:10042F0080A680EA809A80A880DA80E280CA803134
:10043F0089828A83ECFAE493A3C8C582C8CCC583AA
:10044F00CCF0A3C8C582C8CCC583CC70E9800D8918
:10045F00828A83E493A3F60870F9ECFAA9F0EDFB16
:10046F002289828A83ECFAE0A3C8C582C8CCC583EF
:10047F00CCF0A3C8C582C8CCC583CC70EA80DD8917
:10048F00828A83E493A3F20870F980CE88F0ED247A
:10049F0002B4040050C4F582EB2402B4040050BA35
:0904AF00232345822390041F73EE
:1004B800BC000BBE0029EF8DF084FFADF022E4CC28
:1004C800F875F008EF2FFFEE33FEEC33FCEE9DECF1
:1004D800984005FCEE9DFE0FD5F0E9E4CEFD22ED37
:1004E800F8F5F0EE8420D21CFEADF075F008EF2F81
:1004F800FFED33FD4007985006D5F0F222C398FD72
:050508000FD5F0EA220E
:00000001FF
